{
  "transactions": [
    {
      "hash": "0xbdf1b0ebba9b6e25b2ef3d0b342687e7d13ba07e7e55e8ed97cea41ed122b0b2",
      "transactionType": "CREATE",
      "contractName": "Nusapay",
      "contractAddress": "0x19f1021ff79b7428d4b5618338b02a20acad00b9",
      "function": null,
      "arguments": null,
      "transaction": {
        "from": "0xfa128bbd1846c19025c7428aee403fc06f0a9e38",
        "gas": "0x15bc4a",
        "value": "0x0",
        "input": "0x608060405273af88d065e77c8cc2239327c5edb3a432268e583160015f6101000a81548173ffffffffffffffffffffffffffffffffffffffff021916908373ffffffffffffffffffffffffffffffffffffffff1602179055506744ae84d8e9a37444600160146101000a81548167ffffffffffffffff021916908367ffffffffffffffff16021790555067dda641cfe44aff8260025f6101000a81548167ffffffffffffffff021916908367ffffffffffffffff160217905550730d837ad954f4f9f06e303a86150ad0f322ec5eb1600260086101000a81548173ffffffffffffffffffffffffffffffffffffffff021916908373ffffffffffffffffffffffffffffffffffffffff16021790555073f97f4df75117a78c1a5a0dbb814af92458539fb460035f6101000a81548173ffffffffffffffffffffffffffffffffffffffff021916908373ffffffffffffffffffffffffffffffffffffffff16021790555073141fa059441e0ca23ce184b6a78bafd2a517dde860045f6101000a81548173ffffffffffffffffffffffffffffffffffffffff021916908373ffffffffffffffffffffffffffffffffffffffff1602179055503480156101c1575f5ffd5b5060015f81905550611072806101d65f395ff3fe608060405234801561000f575f5ffd5b5060043610610086575f3560e01c80635d0fee93116100595780635d0fee93146101145780636182526614610132578063865cf94114610150578063d4593aa41461016c57610086565b80630de229841461008a578063339926d6146100a85780633e413bee146100d857806357970e93146100f6575b5f5ffd5b61009261018a565b60405161009f9190610878565b60405180910390f35b6100c260048036038101906100bd9190610ac3565b6101af565b6040516100cf9190610b3e565b60405180910390f35b6100e061033d565b6040516100ed9190610878565b60405180910390f35b6100fe610362565b60405161010b9190610878565b60405180910390f35b61011c610387565b6040516101299190610b79565b60405180910390f35b61013a6103a1565b6040516101479190610b79565b60405180910390f35b61016a60048036038101906101659190610b92565b6103ba565b005b61017461067b565b6040516101819190610878565b60405180910390f35b60045f9054906101000a900473ffffffffffffffffffffffffffffffffffffffff1681565b5f5f6040518060a00160405280866040516020016101cd9190610878565b604051602081830303815290604052815260200160405180602001604052805f815250815260200185815260200160018081111561020e5761020d610be2565b5b85600181111561022157610220610be2565b5b1461022c575f61024f565b60035f9054906101000a900473ffffffffffffffffffffffffffffffffffffffff165b73ffffffffffffffffffffffffffffffffffffffff16815260200160405180602001604052805f81525081525090505f60045f9054906101000a900473ffffffffffffffffffffffffffffffffffffffff1673ffffffffffffffffffffffffffffffffffffffff166320487ded60025f9054906101000a900467ffffffffffffffff16846040518363ffffffff1660e01b81526004016102f0929190610dea565b602060405180830381865afa15801561030b573d5f5f3e3d5ffd5b505050506040513d601f19601f8201168201806040525081019061032f9190610e2c565b905080925050509392505050565b60015f9054906101000a900473ffffffffffffffffffffffffffffffffffffffff1681565b60035f9054906101000a900473ffffffffffffffffffffffffffffffffffffffff1681565b600160149054906101000a900467ffffffffffffffff1681565b60025f9054906101000a900467ffffffffffffffff1681565b6103c26106a1565b61041033308460015f9054906101000a900473ffffffffffffffffffffffffffffffffffffffff1673ffffffffffffffffffffffffffffffffffffffff166106e5909392919063ffffffff16565b60015f9054906101000a900473ffffffffffffffffffffffffffffffffffffffff1673ffffffffffffffffffffffffffffffffffffffff1663095ea7b3600260089054906101000a900473ffffffffffffffffffffffffffffffffffffffff16846040518363ffffffff1660e01b815260040161048e929190610e57565b6020604051808303815f875af11580156104aa573d5f5f3e3d5ffd5b505050506040513d601f19601f820116820180604052508101906104ce9190610eb3565b505f600167ffffffffffffffff8111156104eb576104ea6108e0565b5b60405190808252806020026020018201604052801561052457816020015b61051161080b565b8152602001906001900390816105095790505b509050604051806040016040528060015f9054906101000a900473ffffffffffffffffffffffffffffffffffffffff1673ffffffffffffffffffffffffffffffffffffffff16815260200184815250815f8151811061058657610585610ede565b5b6020026020010181905250600260089054906101000a900473ffffffffffffffffffffffffffffffffffffffff1673ffffffffffffffffffffffffffffffffffffffff1663b6d2440c60025f9054906101000a900467ffffffffffffffff168684866040518563ffffffff1660e01b81526004016106079493929190610fbd565b5f604051808303815f87803b15801561061e575f5ffd5b505af1158015610630573d5f5f3e3d5ffd5b505050507f22e3f162fca16dc0fcfb65eddf406531a0c555a2c24c58cf5d10fc2d202a882e8484604051610665929190610e57565b60405180910390a150610676610767565b505050565b600260089054906101000a900473ffffffffffffffffffffffffffffffffffffffff1681565b60025f54036106dc576040517f3ee5aeb500000000000000000000000000000000000000000000000000000000815260040160405180910390fd5b60025f81905550565b610761848573ffffffffffffffffffffffffffffffffffffffff166323b872dd86868660405160240161071a93929190611007565b604051602081830303815290604052915060e01b6020820180517bffffffffffffffffffffffffffffffffffffffffffffffffffffffff8381831617835250505050610770565b50505050565b60015f81905550565b5f5f60205f8451602086015f885af18061078f576040513d5f823e3d81fd5b3d92505f519150505f82146107a85760018114156107c3565b5f8473ffffffffffffffffffffffffffffffffffffffff163b145b1561080557836040517f5274afe70000000000000000000000000000000000000000000000000000000081526004016107fc9190610878565b60405180910390fd5b50505050565b60405180604001604052805f73ffffffffffffffffffffffffffffffffffffffff1681526020015f81525090565b5f73ffffffffffffffffffffffffffffffffffffffff82169050919050565b5f61086282610839565b9050919050565b61087281610858565b82525050565b5f60208201905061088b5f830184610869565b92915050565b5f604051905090565b5f5ffd5b5f5ffd5b6108ab81610858565b81146108b5575f5ffd5b50565b5f813590506108c6816108a2565b92915050565b5f5ffd5b5f601f19601f8301169050919050565b7f4e487b71000000000000000000000000000000000000000000000000000000005f52604160045260245ffd5b610916826108d0565b810181811067ffffffffffffffff82111715610935576109346108e0565b5b80604052505050565b5f610947610891565b9050610953828261090d565b919050565b5f67ffffffffffffffff821115610972576109716108e0565b5b602082029050602081019050919050565b5f5ffd5b5f5ffd5b5f819050919050565b61099d8161098b565b81146109a7575f5ffd5b50565b5f813590506109b881610994565b92915050565b5f604082840312156109d3576109d2610987565b5b6109dd604061093e565b90505f6109ec848285016108b8565b5f8301525060206109ff848285016109aa565b60208301525092915050565b5f610a1d610a1884610958565b61093e565b90508083825260208201905060408402830185811115610a4057610a3f610983565b5b835b81811015610a695780610a5588826109be565b845260208401935050604081019050610a42565b5050509392505050565b5f82601f830112610a8757610a866108cc565b5b8135610a97848260208601610a0b565b91505092915050565b60028110610aac575f5ffd5b50565b5f81359050610abd81610aa0565b92915050565b5f5f5f60608486031215610ada57610ad961089a565b5b5f610ae7868287016108b8565b935050602084013567ffffffffffffffff811115610b0857610b0761089e565b5b610b1486828701610a73565b9250506040610b2586828701610aaf565b9150509250925092565b610b388161098b565b82525050565b5f602082019050610b515f830184610b2f565b92915050565b5f67ffffffffffffffff82169050919050565b610b7381610b57565b82525050565b5f602082019050610b8c5f830184610b6a565b92915050565b5f5f5f60608486031215610ba957610ba861089a565b5b5f610bb6868287016108b8565b9350506020610bc7868287016109aa565b9250506040610bd886828701610aaf565b9150509250925092565b7f4e487b71000000000000000000000000000000000000000000000000000000005f52602160045260245ffd5b5f81519050919050565b5f82825260208201905092915050565b8281835e5f83830152505050565b5f610c4182610c0f565b610c4b8185610c19565b9350610c5b818560208601610c29565b610c64816108d0565b840191505092915050565b5f81519050919050565b5f82825260208201905092915050565b5f819050602082019050919050565b610ca181610858565b82525050565b610cb08161098b565b82525050565b604082015f820151610cca5f850182610c98565b506020820151610cdd6020850182610ca7565b50505050565b5f610cee8383610cb6565b60408301905092915050565b5f602082019050919050565b5f610d1082610c6f565b610d1a8185610c79565b9350610d2583610c89565b805f5b83811015610d55578151610d3c8882610ce3565b9750610d4783610cfa565b925050600181019050610d28565b5085935050505092915050565b5f60a083015f8301518482035f860152610d7c8282610c37565b91505060208301518482036020860152610d968282610c37565b91505060408301518482036040860152610db08282610d06565b9150506060830151610dc56060860182610c98565b5060808301518482036080860152610ddd8282610c37565b9150508091505092915050565b5f604082019050610dfd5f830185610b6a565b8181036020830152610e0f8184610d62565b90509392505050565b5f81519050610e2681610994565b92915050565b5f60208284031215610e4157610e4061089a565b5b5f610e4e84828501610e18565b91505092915050565b5f604082019050610e6a5f830185610869565b610e776020830184610b2f565b9392505050565b5f8115159050919050565b610e9281610e7e565b8114610e9c575f5ffd5b50565b5f81519050610ead81610e89565b92915050565b5f60208284031215610ec857610ec761089a565b5b5f610ed584828501610e9f565b91505092915050565b7f4e487b71000000000000000000000000000000000000000000000000000000005f52603260045260245ffd5b5f82825260208201905092915050565b5f610f2582610c6f565b610f2f8185610f0b565b9350610f3a83610c89565b805f5b83811015610f6a578151610f518882610ce3565b9750610f5c83610cfa565b925050600181019050610f3d565b5085935050505092915050565b60028110610f8857610f87610be2565b5b50565b5f819050610f9882610f77565b919050565b5f610fa782610f8b565b9050919050565b610fb781610f9d565b82525050565b5f608082019050610fd05f830187610b6a565b610fdd6020830186610869565b8181036040830152610fef8185610f1b565b9050610ffe6060830184610fae565b95945050505050565b5f60608201905061101a5f830186610869565b6110276020830185610869565b6110346040830184610b2f565b94935050505056fea2646970667358221220b2bfa7003132ef11868621655f53e3bf9bda82e6ca8c18fdc8465284b8617f1564736f6c634300081c0033",
        "nonce": "0x1",
        "chainId": "0xa4b1"
      },
      "additionalContracts": [],
      "isFixedGasLimit": false
    },
    {
      "hash": "0xfd1bdfd073be5c546ff5e848872732cb545a85fe615c2bf1e78b6d01f4bf62ab",
      "transactionType": "CALL",
      "contractName": null,
      "contractAddress": "0xf97f4df75117a78c1a5a0dbb814af92458539fb4",
      "function": "approve(address,uint256)",
      "arguments": [
        "0x19f1021fF79B7428D4b5618338B02A20aCaD00b9",
        "1000000000000000000"
      ],
      "transaction": {
        "from": "0xfa128bbd1846c19025c7428aee403fc06f0a9e38",
        "to": "0xf97f4df75117a78c1a5a0dbb814af92458539fb4",
        "gas": "0x1248b",
        "value": "0x0",
        "input": "0x095ea7b300000000000000000000000019f1021ff79b7428d4b5618338b02a20acad00b90000000000000000000000000000000000000000000000000de0b6b3a7640000",
        "nonce": "0x2",
        "chainId": "0xa4b1"
      },
      "additionalContracts": [],
      "isFixedGasLimit": false
    },
    {
      "hash": "0x3254c25eaeb8d91c336433cae023d1231ac3cc547d5a09fb1e1afb7460ccf571",
      "transactionType": "CALL",
      "contractName": null,
      "contractAddress": "0xf97f4df75117a78c1a5a0dbb814af92458539fb4",
      "function": "transfer(address,uint256)",
      "arguments": [
        "0x0d837aD954F4f9F06E303A86150ad0F322Ec5EB1",
        "1000000000000000000"
      ],
      "transaction": {
        "from": "0xfa128bbd1846c19025c7428aee403fc06f0a9e38",
        "to": "0xf97f4df75117a78c1a5a0dbb814af92458539fb4",
        "gas": "0x140c6",
        "value": "0x0",
        "input": "0xa9059cbb0000000000000000000000000d837ad954f4f9f06e303a86150ad0f322ec5eb10000000000000000000000000000000000000000000000000de0b6b3a7640000",
        "nonce": "0x3",
        "chainId": "0xa4b1"
      },
      "additionalContracts": [],
      "isFixedGasLimit": false
    },
    {
      "hash": "0xd10f905a3c8dede4d8c4f9c44b8063c72a22a57d8e03e6535ee1a6c509f94372",
      "transactionType": "CALL",
      "contractName": null,
      "contractAddress": "0xaf88d065e77c8cc2239327c5edb3a432268e5831",
      "function": "approve(address,uint256)",
      "arguments": [
        "0x19f1021fF79B7428D4b5618338B02A20aCaD00b9",
        "100000000"
      ],
      "transaction": {
        "from": "0xfa128bbd1846c19025c7428aee403fc06f0a9e38",
        "to": "0xaf88d065e77c8cc2239327c5edb3a432268e5831",
        "gas": "0x11ff9",
        "value": "0x0",
        "input": "0x095ea7b300000000000000000000000019f1021ff79b7428d4b5618338b02a20acad00b90000000000000000000000000000000000000000000000000000000005f5e100",
        "nonce": "0x4",
        "chainId": "0xa4b1"
      },
      "additionalContracts": [],
      "isFixedGasLimit": false
    },
    {
      "hash": "0xb5bc9161f8184d0f450f98b4041a9a86d3bbc382bbb010304201ad77dcc4ab16",
      "transactionType": "CALL",
      "contractName": "Nusapay",
      "contractAddress": "0x19f1021ff79b7428d4b5618338b02a20acad00b9",
      "function": "execBridge(address,uint256,uint8)",
      "arguments": [
        "0xFA128bBD1846c19025c7428AEE403Fc06F0A9e38",
        "100000000",
        "1"
      ],
      "transaction": {
        "from": "0xfa128bbd1846c19025c7428aee403fc06f0a9e38",
        "to": "0x19f1021ff79b7428d4b5618338b02a20acad00b9",
        "gas": "0x72e1",
        "value": "0x0",
        "input": "0x865cf941000000000000000000000000fa128bbd1846c19025c7428aee403fc06f0a9e380000000000000000000000000000000000000000000000000000000005f5e1000000000000000000000000000000000000000000000000000000000000000001",
        "nonce": "0x5",
        "chainId": "0xa4b1"
      },
      "additionalContracts": [],
      "isFixedGasLimit": false
    }
  ],
  "receipts": [
    {
      "status": "0x1",
      "cumulativeGasUsed": "0x108aef",
      "logs": [],
      "logsBloom": "0x00000000000000000000000000000000000000000000000000000000000000000000000000000000000000000000000000000000000000000000000000000000000000000000000000000000000000000000000000000000000000000000000000000000000000000000000000000000000000000000000000000000000000000000000000000000000000000000000000000000000000000000000000000000000000000000000000000000000000000000000000000000000000000000000000000000000000000000000000000000000000000000000000000000000000000000000000000000000000000000000000000000000000000000000000000000",
      "type": "0x2",
      "transactionHash": "0xbdf1b0ebba9b6e25b2ef3d0b342687e7d13ba07e7e55e8ed97cea41ed122b0b2",
      "transactionIndex": "0x0",
      "blockHash": "0xa05b1470e93c51fecf0ad371dd0d9f3e5035013452684031efb83306ab06860d",
      "blockNumber": "0x1503de8d",
      "gasUsed": "0x108aef",
      "effectiveGasPrice": "0xadba1f1",
      "blobGasUsed": "0x0",
      "from": "0xfa128bbd1846c19025c7428aee403fc06f0a9e38",
      "to": null,
      "contractAddress": "0x19f1021ff79b7428d4b5618338b02a20acad00b9"
    },
    {
      "status": "0x1",
      "cumulativeGasUsed": "0xdd1d",
      "logs": [
        {
          "address": "0xf97f4df75117a78c1a5a0dbb814af92458539fb4",
          "topics": [
            "0x8c5be1e5ebec7d5bd14f71427d1e84f3dd0314c0f7b2291e5b200ac8c7c3b925",
            "0x000000000000000000000000fa128bbd1846c19025c7428aee403fc06f0a9e38",
            "0x00000000000000000000000019f1021ff79b7428d4b5618338b02a20acad00b9"
          ],
          "data": "0x0000000000000000000000000000000000000000000000000de0b6b3a7640000",
          "blockHash": "0xec19b4f4d29c16dcb7e9f048304855fe0b0914a1a6522518d0cf837572bb0bdf",
          "blockNumber": "0x1503de8e",
          "transactionHash": "0xfd1bdfd073be5c546ff5e848872732cb545a85fe615c2bf1e78b6d01f4bf62ab",
          "transactionIndex": "0x0",
          "logIndex": "0x0",
          "removed": false
        }
      ],
      "logsBloom": "0x00000000000000000000000000020000000000000000000000000400000000000000000000000000000000000000000000000000000000000000000000200000000000000000000000000000000000000000000000000000000000000000000000000020040000000000000000000000000000000000020000000000000000000000000000000000000000000000000000000000000000000000000000000000020000004000000000000000000000000000000000000000000200000000000000000000000000000000000000000000000000000082000000000000000000000010000000000000000000000000000000000000000000000000000000000000",
      "type": "0x2",
      "transactionHash": "0xfd1bdfd073be5c546ff5e848872732cb545a85fe615c2bf1e78b6d01f4bf62ab",
      "transactionIndex": "0x0",
      "blockHash": "0xec19b4f4d29c16dcb7e9f048304855fe0b0914a1a6522518d0cf837572bb0bdf",
      "blockNumber": "0x1503de8e",
      "gasUsed": "0xdd1d",
      "effectiveGasPrice": "0xadba1f1",
      "blobGasUsed": "0x0",
      "from": "0xfa128bbd1846c19025c7428aee403fc06f0a9e38",
      "to": "0xf97f4df75117a78c1a5a0dbb814af92458539fb4",
      "contractAddress": null
    },
    {
      "status": "0x1",
      "cumulativeGasUsed": "0xf2be",
      "logs": [
        {
          "address": "0xf97f4df75117a78c1a5a0dbb814af92458539fb4",
          "topics": [
            "0xddf252ad1be2c89b69c2b068fc378daa952ba7f163c4a11628f55a4df523b3ef",
            "0x000000000000000000000000fa128bbd1846c19025c7428aee403fc06f0a9e38",
            "0x0000000000000000000000000d837ad954f4f9f06e303a86150ad0f322ec5eb1"
          ],
          "data": "0x0000000000000000000000000000000000000000000000000de0b6b3a7640000",
          "blockHash": "0x2086d9d2f09f7bab3f2c4d53968a08ffad291d4d2b9e3b130d81773dbe2beae4",
          "blockNumber": "0x1503de8f",
          "transactionHash": "0x3254c25eaeb8d91c336433cae023d1231ac3cc547d5a09fb1e1afb7460ccf571",
          "transactionIndex": "0x0",
          "logIndex": "0x0",
          "removed": false
        }
      ],
      "logsBloom": "0x00000000000000000000000000020000000000000000000000000000000000000000000000000000000000000000000000000000000000000000000000000000000000000004000000000008000000000000000002000000000000000000000000000020040000000000000000000000000000000000000000000010000000000000000000000000000000000000000000000000000000000000000000000000000000004000000000000000000000000000000000000000001200000000000000000002000000000000000000000000000000000080000000000000000000000000000000000000000000000000000000000000000000000000000000000000",
      "type": "0x2",
      "transactionHash": "0x3254c25eaeb8d91c336433cae023d1231ac3cc547d5a09fb1e1afb7460ccf571",
      "transactionIndex": "0x0",
      "blockHash": "0x2086d9d2f09f7bab3f2c4d53968a08ffad291d4d2b9e3b130d81773dbe2beae4",
      "blockNumber": "0x1503de8f",
      "gasUsed": "0xf2be",
      "effectiveGasPrice": "0xadba1f1",
      "blobGasUsed": "0x0",
      "from": "0xfa128bbd1846c19025c7428aee403fc06f0a9e38",
      "to": "0xf97f4df75117a78c1a5a0dbb814af92458539fb4",
      "contractAddress": null
    },
    {
      "status": "0x1",
      "cumulativeGasUsed": "0xd99c",
      "logs": [
        {
          "address": "0xaf88d065e77c8cc2239327c5edb3a432268e5831",
          "topics": [
            "0x8c5be1e5ebec7d5bd14f71427d1e84f3dd0314c0f7b2291e5b200ac8c7c3b925",
            "0x000000000000000000000000fa128bbd1846c19025c7428aee403fc06f0a9e38",
            "0x00000000000000000000000019f1021ff79b7428d4b5618338b02a20acad00b9"
          ],
          "data": "0x0000000000000000000000000000000000000000000000000000000005f5e100",
          "blockHash": "0xb37bc3673d6c6374d01385fc2d83d07fa1a1083a946ed9c9c799aee6278a5f46",
          "blockNumber": "0x1503de90",
          "transactionHash": "0xd10f905a3c8dede4d8c4f9c44b8063c72a22a57d8e03e6535ee1a6c509f94372",
          "transactionIndex": "0x0",
          "logIndex": "0x0",
          "removed": false
        }
      ],
      "logsBloom": "0x00000000000000000000000000000000000000000000000000000400000000000000000000000000000000000000000000000001000000000000000000200000000000000000000000000000000000000000000000000000000000000000000000000000040000000000000000000000000000000000020000000000000000000000000000000000000000000000000000000000000000000000000000000000020000004000000000000000000000000000000000000000000000000000000000002000000000000000000000000000000000000082000000000000000000000010000000000000000000000000200000000000000000000000000000000000",
      "type": "0x2",
      "transactionHash": "0xd10f905a3c8dede4d8c4f9c44b8063c72a22a57d8e03e6535ee1a6c509f94372",
      "transactionIndex": "0x0",
      "blockHash": "0xb37bc3673d6c6374d01385fc2d83d07fa1a1083a946ed9c9c799aee6278a5f46",
      "blockNumber": "0x1503de90",
      "gasUsed": "0xd99c",
      "effectiveGasPrice": "0xadba1f1",
      "blobGasUsed": "0x0",
      "from": "0xfa128bbd1846c19025c7428aee403fc06f0a9e38",
      "to": "0xaf88d065e77c8cc2239327c5edb3a432268e5831",
      "contractAddress": null
    },
    {
      "status": "0x1",
      "cumulativeGasUsed": "0x5e2f9",
      "logs": [
        {
          "address": "0xaf88d065e77c8cc2239327c5edb3a432268e5831",
          "topics": [
            "0xddf252ad1be2c89b69c2b068fc378daa952ba7f163c4a11628f55a4df523b3ef",
            "0x000000000000000000000000fa128bbd1846c19025c7428aee403fc06f0a9e38",
            "0x00000000000000000000000019f1021ff79b7428d4b5618338b02a20acad00b9"
          ],
          "data": "0x0000000000000000000000000000000000000000000000000000000005f5e100",
          "blockHash": "0x950b17c4fb5474c0201f72169039e0ecb21b8b77aee148e091556981b4e5c6fe",
          "blockNumber": "0x1503de91",
          "transactionHash": "0xb5bc9161f8184d0f450f98b4041a9a86d3bbc382bbb010304201ad77dcc4ab16",
          "transactionIndex": "0x0",
          "logIndex": "0x0",
          "removed": false
        },
        {
          "address": "0xaf88d065e77c8cc2239327c5edb3a432268e5831",
          "topics": [
            "0x8c5be1e5ebec7d5bd14f71427d1e84f3dd0314c0f7b2291e5b200ac8c7c3b925",
            "0x00000000000000000000000019f1021ff79b7428d4b5618338b02a20acad00b9",
            "0x0000000000000000000000000d837ad954f4f9f06e303a86150ad0f322ec5eb1"
          ],
          "data": "0x0000000000000000000000000000000000000000000000000000000005f5e100",
          "blockHash": "0x950b17c4fb5474c0201f72169039e0ecb21b8b77aee148e091556981b4e5c6fe",
          "blockNumber": "0x1503de91",
          "transactionHash": "0xb5bc9161f8184d0f450f98b4041a9a86d3bbc382bbb010304201ad77dcc4ab16",
          "transactionIndex": "0x0",
          "logIndex": "0x1",
          "removed": false
        },
        {
          "address": "0xaf88d065e77c8cc2239327c5edb3a432268e5831",
          "topics": [
            "0xddf252ad1be2c89b69c2b068fc378daa952ba7f163c4a11628f55a4df523b3ef",
            "0x00000000000000000000000019f1021ff79b7428d4b5618338b02a20acad00b9",
            "0x0000000000000000000000000d837ad954f4f9f06e303a86150ad0f322ec5eb1"
          ],
          "data": "0x0000000000000000000000000000000000000000000000000000000005f5e100",
          "blockHash": "0x950b17c4fb5474c0201f72169039e0ecb21b8b77aee148e091556981b4e5c6fe",
          "blockNumber": "0x1503de91",
          "transactionHash": "0xb5bc9161f8184d0f450f98b4041a9a86d3bbc382bbb010304201ad77dcc4ab16",
          "transactionIndex": "0x0",
          "logIndex": "0x2",
          "removed": false
        },
        {
          "address": "0xaf88d065e77c8cc2239327c5edb3a432268e5831",
          "topics": [
            "0x8c5be1e5ebec7d5bd14f71427d1e84f3dd0314c0f7b2291e5b200ac8c7c3b925",
            "0x0000000000000000000000000d837ad954f4f9f06e303a86150ad0f322ec5eb1",
            "0x000000000000000000000000141fa059441e0ca23ce184b6a78bafd2a517dde8"
          ],
          "data": "0x0000000000000000000000000000000000000000000000000000000005f5e100",
          "blockHash": "0x950b17c4fb5474c0201f72169039e0ecb21b8b77aee148e091556981b4e5c6fe",
          "blockNumber": "0x1503de91",
          "transactionHash": "0xb5bc9161f8184d0f450f98b4041a9a86d3bbc382bbb010304201ad77dcc4ab16",
          "transactionIndex": "0x0",
          "logIndex": "0x3",
          "removed": false
        },
        {
          "address": "0xf97f4df75117a78c1a5a0dbb814af92458539fb4",
          "topics": [
            "0x8c5be1e5ebec7d5bd14f71427d1e84f3dd0314c0f7b2291e5b200ac8c7c3b925",
            "0x0000000000000000000000000d837ad954f4f9f06e303a86150ad0f322ec5eb1",
            "0x000000000000000000000000141fa059441e0ca23ce184b6a78bafd2a517dde8"
          ],
          "data": "0x000000000000000000000000000000000000000000000000003c62f1b93efdcb",
          "blockHash": "0x950b17c4fb5474c0201f72169039e0ecb21b8b77aee148e091556981b4e5c6fe",
          "blockNumber": "0x1503de91",
          "transactionHash": "0xb5bc9161f8184d0f450f98b4041a9a86d3bbc382bbb010304201ad77dcc4ab16",
          "transactionIndex": "0x0",
          "logIndex": "0x4",
          "removed": false
        },
        {
          "address": "0xf97f4df75117a78c1a5a0dbb814af92458539fb4",
          "topics": [
            "0xddf252ad1be2c89b69c2b068fc378daa952ba7f163c4a11628f55a4df523b3ef",
            "0x0000000000000000000000000d837ad954f4f9f06e303a86150ad0f322ec5eb1",
            "0x000000000000000000000000c1b6287a3292d6469f2d8545877e40a2f75ca9a6"
          ],
          "data": "0x000000000000000000000000000000000000000000000000003c62f1b93efdcb",
          "blockHash": "0x950b17c4fb5474c0201f72169039e0ecb21b8b77aee148e091556981b4e5c6fe",
          "blockNumber": "0x1503de91",
          "transactionHash": "0xb5bc9161f8184d0f450f98b4041a9a86d3bbc382bbb010304201ad77dcc4ab16",
          "transactionIndex": "0x0",
          "logIndex": "0x5",
          "removed": false
        },
        {
          "address": "0xf97f4df75117a78c1a5a0dbb814af92458539fb4",
          "topics": [
            "0x8c5be1e5ebec7d5bd14f71427d1e84f3dd0314c0f7b2291e5b200ac8c7c3b925",
            "0x0000000000000000000000000d837ad954f4f9f06e303a86150ad0f322ec5eb1",
            "0x000000000000000000000000141fa059441e0ca23ce184b6a78bafd2a517dde8"
          ],
          "data": "0x0000000000000000000000000000000000000000000000000000000000000000",
          "blockHash": "0x950b17c4fb5474c0201f72169039e0ecb21b8b77aee148e091556981b4e5c6fe",
          "blockNumber": "0x1503de91",
          "transactionHash": "0xb5bc9161f8184d0f450f98b4041a9a86d3bbc382bbb010304201ad77dcc4ab16",
          "transactionIndex": "0x0",
          "logIndex": "0x6",
          "removed": false
        },
        {
          "address": "0xaf88d065e77c8cc2239327c5edb3a432268e5831",
          "topics": [
            "0xddf252ad1be2c89b69c2b068fc378daa952ba7f163c4a11628f55a4df523b3ef",
            "0x0000000000000000000000000d837ad954f4f9f06e303a86150ad0f322ec5eb1",
            "0x0000000000000000000000009fcd83bc7f67ada1fb51a4cabea333c72b641bd1"
          ],
          "data": "0x0000000000000000000000000000000000000000000000000000000005f5e100",
          "blockHash": "0x950b17c4fb5474c0201f72169039e0ecb21b8b77aee148e091556981b4e5c6fe",
          "blockNumber": "0x1503de91",
          "transactionHash": "0xb5bc9161f8184d0f450f98b4041a9a86d3bbc382bbb010304201ad77dcc4ab16",
          "transactionIndex": "0x0",
          "logIndex": "0x7",
          "removed": false
        },
        {
          "address": "0xaf88d065e77c8cc2239327c5edb3a432268e5831",
          "topics": [
            "0xddf252ad1be2c89b69c2b068fc378daa952ba7f163c4a11628f55a4df523b3ef",
            "0x0000000000000000000000009fcd83bc7f67ada1fb51a4cabea333c72b641bd1",
            "0x000000000000000000000000e7ed1fa7f45d05c508232aa32649d89b73b8ba48"
          ],
          "data": "0x0000000000000000000000000000000000000000000000000000000005f5e100",
          "blockHash": "0x950b17c4fb5474c0201f72169039e0ecb21b8b77aee148e091556981b4e5c6fe",
          "blockNumber": "0x1503de91",
          "transactionHash": "0xb5bc9161f8184d0f450f98b4041a9a86d3bbc382bbb010304201ad77dcc4ab16",
          "transactionIndex": "0x0",
          "logIndex": "0x8",
          "removed": false
        },
        {
          "address": "0xaf88d065e77c8cc2239327c5edb3a432268e5831",
          "topics": [
            "0xcc16f5dbb4873280815c1ee09dbd06736cffcc184412cf7a71a0fdb75d397ca5",
            "0x000000000000000000000000e7ed1fa7f45d05c508232aa32649d89b73b8ba48"
          ],
          "data": "0x0000000000000000000000000000000000000000000000000000000005f5e100",
          "blockHash": "0x950b17c4fb5474c0201f72169039e0ecb21b8b77aee148e091556981b4e5c6fe",
          "blockNumber": "0x1503de91",
          "transactionHash": "0xb5bc9161f8184d0f450f98b4041a9a86d3bbc382bbb010304201ad77dcc4ab16",
          "transactionIndex": "0x0",
          "logIndex": "0x9",
          "removed": false
        },
        {
          "address": "0xaf88d065e77c8cc2239327c5edb3a432268e5831",
          "topics": [
            "0xddf252ad1be2c89b69c2b068fc378daa952ba7f163c4a11628f55a4df523b3ef",
            "0x000000000000000000000000e7ed1fa7f45d05c508232aa32649d89b73b8ba48",
            "0x0000000000000000000000000000000000000000000000000000000000000000"
          ],
          "data": "0x0000000000000000000000000000000000000000000000000000000005f5e100",
          "blockHash": "0x950b17c4fb5474c0201f72169039e0ecb21b8b77aee148e091556981b4e5c6fe",
          "blockNumber": "0x1503de91",
          "transactionHash": "0xb5bc9161f8184d0f450f98b4041a9a86d3bbc382bbb010304201ad77dcc4ab16",
          "transactionIndex": "0x0",
          "logIndex": "0xa",
          "removed": false
        },
        {
          "address": "0xc30362313fbba5cf9163f0bb16a0e01f01a896ca",
          "topics": [
            "0x8c5261668696ce22758910d05bab8f186d6eb247ceac2af2e82c7dc17669b036"
          ],
          "data": "0x000000000000000000000000000000000000000000000000000000000000002000000000000000000000000000000000000000000000000000000000000000f800000000000000030000000600000000000978b100000000000000000000000019330d10d9cc8751218eaf51e8885d058642e08a0000000000000000000000001682ae6375c4e4a97e4b583bc394c861a46d89620000000000000000000000005931822f394babc2aacf4588e98fc77a9f5aa8c900000000000000000000000000000000af88d065e77c8cc2239327c5edb3a432268e5831000000000000000000000000fa128bbd1846c19025c7428aee403fc06f0a9e380000000000000000000000000000000000000000000000000000000005f5e1000000000000000000000000009fcd83bc7f67ada1fb51a4cabea333c72b641bd10000000000000000",
          "blockHash": "0x950b17c4fb5474c0201f72169039e0ecb21b8b77aee148e091556981b4e5c6fe",
          "blockNumber": "0x1503de91",
          "transactionHash": "0xb5bc9161f8184d0f450f98b4041a9a86d3bbc382bbb010304201ad77dcc4ab16",
          "transactionIndex": "0x0",
          "logIndex": "0xb",
          "removed": false
        },
        {
          "address": "0x19330d10d9cc8751218eaf51e8885d058642e08a",
          "topics": [
            "0x2fa9ca894982930190727e75500a97d8dc500233a5065e0f3126c48fbe0343c0",
            "0x00000000000000000000000000000000000000000000000000000000000978b1",
            "0x000000000000000000000000af88d065e77c8cc2239327c5edb3a432268e5831",
            "0x0000000000000000000000009fcd83bc7f67ada1fb51a4cabea333c72b641bd1"
          ],
          "data": "0x0000000000000000000000000000000000000000000000000000000005f5e100000000000000000000000000fa128bbd1846c19025c7428aee403fc06f0a9e3800000000000000000000000000000000000000000000000000000000000000060000000000000000000000001682ae6375c4e4a97e4b583bc394c861a46d89620000000000000000000000005931822f394babc2aacf4588e98fc77a9f5aa8c9",
          "blockHash": "0x950b17c4fb5474c0201f72169039e0ecb21b8b77aee148e091556981b4e5c6fe",
          "blockNumber": "0x1503de91",
          "transactionHash": "0xb5bc9161f8184d0f450f98b4041a9a86d3bbc382bbb010304201ad77dcc4ab16",
          "transactionIndex": "0x0",
          "logIndex": "0xc",
          "removed": false
        },
        {
          "address": "0x9fcd83bc7f67ada1fb51a4cabea333c72b641bd1",
          "topics": [
            "0x696de425f79f4a40bc6d2122ca50507f0efbeabbff86a84871b7196ab8ea8df7",
            "0x000000000000000000000000c1b6287a3292d6469f2d8545877e40a2f75ca9a6"
          ],
          "data": "0x0000000000000000000000000000000000000000000000000000000005f5e100",
          "blockHash": "0x950b17c4fb5474c0201f72169039e0ecb21b8b77aee148e091556981b4e5c6fe",
          "blockNumber": "0x1503de91",
          "transactionHash": "0xb5bc9161f8184d0f450f98b4041a9a86d3bbc382bbb010304201ad77dcc4ab16",
          "transactionIndex": "0x0",
          "logIndex": "0xd",
          "removed": false
        },
        {
          "address": "0xc1b6287a3292d6469f2d8545877e40a2f75ca9a6",
          "topics": [
            "0xd0c3c799bf9e2639de44391e7f524d229b2b55f5b1ea94b2bf7da42f7243dddd"
          ],
          "data": "0x000000000000000000000000000000000000000000000000000000000000002000000000000000000000000000000000000000000000000044ae84d8e9a374440000000000000000000000000d837ad954f4f9f06e303a86150ad0f322ec5eb1000000000000000000000000fa128bbd1846c19025c7428aee403fc06f0a9e380000000000000000000000000000000000000000000000000000000000001577000000000000000000000000000000000000000000000000000000000000000000000000000000000000000000000000000000000000000000000000000000000000000000000000000000000000000000000000000000000000000000000000000000000000000000000000f97f4df75117a78c1a5a0dbb814af92458539fb4000000000000000000000000000000000000000000000000003c62f1b93efdcb00000000000000000000000000000000000000000000000000000000000001a000000000000000000000000000000000000000000000000000000000000001c000000000000000000000000000000000000000000000000000000000000002208ceacfe6caea178e8ab99644c95924f43dd59df9b2520261c8c261dc759562ca00000000000000000000000000000000000000000000000000000000000000000000000000000000000000000000000000000000000000000000000000000001000000000000000000000000af88d065e77c8cc2239327c5edb3a432268e58310000000000000000000000000000000000000000000000000000000005f5e1000000000000000000000000000000000000000000000000000000000000000001000000000000000000000000000000000000000000000000000000000000002000000000000000000000000000000000000000000000000000000000000001800000000000000000000000000000000000000000000000000000000000000020000000000000000000000000000000000000000000000000000000000000008000000000000000000000000000000000000000000000000000000000000000c00000000000000000000000000000000000000000000000000000000000000100000000000000000000000000000000000000000000000000000000000002bf2000000000000000000000000000000000000000000000000000000000000000200000000000000000000000009fcd83bc7f67ada1fb51a4cabea333c72b641bd10000000000000000000000000000000000000000000000000000000000000020000000000000000000000000833589fcd6edb6e08f4c7c32d4f71b54bda02913000000000000000000000000000000000000000000000000000000000000004000000000000000000000000000000000000000000000000000000000000978b10000000000000000000000000000000000000000000000000000000000000003",
          "blockHash": "0x950b17c4fb5474c0201f72169039e0ecb21b8b77aee148e091556981b4e5c6fe",
          "blockNumber": "0x1503de91",
          "transactionHash": "0xb5bc9161f8184d0f450f98b4041a9a86d3bbc382bbb010304201ad77dcc4ab16",
          "transactionIndex": "0x0",
          "logIndex": "0xe",
          "removed": false
        },
        {
          "address": "0x0d837ad954f4f9f06e303a86150ad0f322ec5eb1",
          "topics": [
            "0x54791b38f3859327992a1ca0590ad3c0f08feba98d1a4f56ab0dca74d203392a"
          ],
          "data": "0x8ceacfe6caea178e8ab99644c95924f43dd59df9b2520261c8c261dc759562ca",
          "blockHash": "0x950b17c4fb5474c0201f72169039e0ecb21b8b77aee148e091556981b4e5c6fe",
          "blockNumber": "0x1503de91",
          "transactionHash": "0xb5bc9161f8184d0f450f98b4041a9a86d3bbc382bbb010304201ad77dcc4ab16",
          "transactionIndex": "0x0",
          "logIndex": "0xf",
          "removed": false
        },
        {
          "address": "0x19f1021ff79b7428d4b5618338b02a20acad00b9",
          "topics": [
            "0x22e3f162fca16dc0fcfb65eddf406531a0c555a2c24c58cf5d10fc2d202a882e"
          ],
          "data": "0x000000000000000000000000fa128bbd1846c19025c7428aee403fc06f0a9e380000000000000000000000000000000000000000000000000000000005f5e100",
          "blockHash": "0x950b17c4fb5474c0201f72169039e0ecb21b8b77aee148e091556981b4e5c6fe",
          "blockNumber": "0x1503de91",
          "transactionHash": "0xb5bc9161f8184d0f450f98b4041a9a86d3bbc382bbb010304201ad77dcc4ab16",
          "transactionIndex": "0x0",
          "logIndex": "0x10",
          "removed": false
        }
      ],
      "logsBloom": "0x00008000800020000000000000120000000080000400001000000400800000000000200000000200102002000000000800100001000000000000000080200000000000000044010000000008001000000000000002010000000200008008010002001020060000004000000000000802080000000048020000100010000000000040000000000000000000000000000000000000000000000000000800300008120000004000000400000000000000000008000000000000001300200400000000002002000080000400000800000000000000000082000800040000000020000010000400000010800000008000200004000000002000000000500000000000",
      "type": "0x2",
      "transactionHash": "0xb5bc9161f8184d0f450f98b4041a9a86d3bbc382bbb010304201ad77dcc4ab16",
      "transactionIndex": "0x0",
      "blockHash": "0x950b17c4fb5474c0201f72169039e0ecb21b8b77aee148e091556981b4e5c6fe",
      "blockNumber": "0x1503de91",
      "gasUsed": "0x5e2f9",
      "effectiveGasPrice": "0xadba1f1",
      "blobGasUsed": "0x0",
      "from": "0xfa128bbd1846c19025c7428aee403fc06f0a9e38",
      "to": "0x19f1021ff79b7428d4b5618338b02a20acad00b9",
      "contractAddress": null
    }
  ],
  "libraries": [],
  "pending": [],
  "returns": {},
  "timestamp": 1751237248955,
  "chain": 42161,
  "commit": null
}